:1000000093C00000AAC00000A8C00000A6C0000065
:10001000A4C00000A2C00000A0C000009EC000005C
:100020009CC000009AC0000098C0000096C000006C
:1000300094C0000092C0000090C000008EC000007C
:100040008CC000008AC0000088C0000086C000008C
:1000500084C0000082C0000080C000007EC000009C
:100060007CC000007AC0000078C0000076C00000AC
:1000700074C0000072C0000070C000006EC00000BC
:100080006CC000006AC0000068C0000066C00000CC
:1000900064C0000062C0000060C000005EC00000DC
:1000A0005CC000005AC0000058C0000056C00000EC
:1000B00054C0000052C0000050C000004EC00000FC
:1000C0004CC000004AC0000048C0000046C000000C
:1000D00044C0000042C0000040C000003EC000001C
:1000E0003CC000000E03180322032C033203450317
:1000F00061037B03AF0395032A052A050B042A0538
:100100002A052A052A052A052A052A052A052A0577
:10011000AF03AC03FB032304D7042304D7042A054D
:10012000D8032A05C903B60311241FBECFEFD1E2BD
:10013000DEBFCDBF00E00CBF22E0A0E0B2E001C016
:100140001D92A230B207E1F754D13FC501E20EBFC4
:100150000FEF0DBF11241FBE4CC152CF8093C600BC
:10016000E0ECF0E0808186FFFDCFE0ECF0E0808104
:10017000806480830895ECEBF0E0108284E4808357
:100180000895009759F020E030E046EA4A95F1F7EB
:1001900000C02F5F3F4F82179307B9F708950F9361
:1001A0001F93CF93DF93882321F084EC8093BC00CE
:1001B00024C084E88093BC0020C0219739F4DBDFA1
:1001C00081E020C0C9ECD0E00CEB10E080E090E0D2
:1001D000D8DFF8018081882384F78091B900887F77
:1001E000883339F48091B900C82FC87FC4DF8C2FC1
:1001F00009C08091B900887F05C08091BC00882328
:100200000CF7EBCFDF91CF911F910F9108950F93D2
:100210001F93CF93DF93ECEBF0E084E98083908130
:10022000892F807194FD06C012C0219739F4A3DF95
:1002300081E00DC0C9ECD0E00CEB10E080E090E074
:10024000A0DFF8019081892F807194FDEECFDF91BE
:10025000CF911F910F9108950F931F93CF93DF9329
:100260008093BB00ECEBF0E084E8808380818823FE
:1002700034F410C0219739F47EDF81E020C0C9EC4E
:10028000D0E00CEB10E080E090E07BDFF8018081B3
:10029000882384F78091B900887F883279F0E9EB70
:1002A000F0E08081C82FC87F8081887F803319F477
:1002B000AEDF8C2F04C05FDF8C2F01C080E0DF91A8
:1002C000CF911F910F9108950F931F93CF93DF93B9
:1002D0008093BB00ECEBF0E084E88083808188238E
:1002E00034F410C0219739F446DF81E02CC0C9EC0A
:1002F000D0E00CEB10E080E090E043DFF80180817B
:10030000882384F78091B900887F8831C9F0809173
:10031000B900887F8034B1F0E9EBF0E08081C82F2C
:10032000C87F8081887F803229F08091B900887FE2
:10033000883419F46CDF8C2F06C01DDF8C2F03C0AE
:1003400080E001C080E0DF91CF911F910F9108956F
:10035000CF92DF92EF92FF920F931F93CF93DF9391
:10036000C82E0CEB10E00F2EF9EBEF2EF12CF02D38
:100370000F2EF4EADF2EF02DF801D0828081882341
:100380002CF40DC0219721F4F6DEF6CFC9ECD0E0B5
:1003900080E090E0F6DEF801808188239CF7F70189
:1003A0008081887F883099F08081887F803179F0E2
:1003B0008081887F883331F48081C82FC87FDBDE5D
:1003C0008C2F03C0F7018081887F8111D5CFCC208D
:1003D00019F080EA79DF02C081EA76DF8111CCCFA3
:1003E000DF91CF911F910F91FF90EF90DF90CF9011
:1003F0000895CF93DF93CDB7DEB7C552D1400FB686
:10040000F894DEBF0FBECDBF82E090E0C8D3C25EDD
:10041000DE4F8883CE51D14001E20EBF0FEF0DBFFA
:1004200094B7F894A89514BEE0E6F0E08081886166
:1004300080831082789493FF05C0E0910002F091D0
:1004400001021995E0ECF0E08081826080831092D7
:10045000C40088E18093C1000000C12CD12C76013A
:100460000F2EF0ECAF2EB12CF02D0F2EFCEB4F2EFB
:1004700055245394612C712CF02D6894222422F879
:1004800088248394912C312CC15EDE4F1882CF5189
:10049000D14055C0C25EDE4F2881CE51D1402130BF
:1004A00001F5589A599AE9EBF0E080818E7F8083BC
:1004B00080818D7F8083E8EBF0E08DEF808384E4A2
:1004C0008093BC0089EF8083589A599A81E040DF7D
:1004D00080E0C2DE8111FCCF81E0BEDE8111FCCF65
:1004E000F7C200003FEFC31AD30AE30AF30A982DBC
:1004F000892D41E2C4164EE4D406E104F10430F43F
:10050000932DC15EDE4F8881CF51D140092F182F26
:10051000C701B601A301920118D3672B682B692B81
:1005200019F484B3822584BBD5018C91882324F0EF
:100530000115110509F4AECF0F5F1F4F19F400E04C
:1005400010E0F2CF0130110509F0E8C2C1C2B1E0FC
:100550002B16310411F5C25EDE4FE881CE51D14039
:10056000E130A9F480E0F4DE80E019DE8130E1F3CF
:10057000883521F4ABEBB0E0FC9003C08111F4CFDF
:10058000F12C45DE8111FDCF292C3A2C3BC0E6EC45
:10059000F0E0F080292C3A2C35C0C25EDE4FF881A5
:1005A000CE51D140F13019F580E0D2DE80E0F7DDA8
:1005B0008130E1F3883521F4ABEBB0E0FC9003C06F
:1005C0008111F4CFF12C23DE8111FDCF1BC00197E7
:1005D000A109B10981F420E030E0A9014BBFF90184
:1005E00087919691019619F0EE27FF27099481E2F1
:1005F00091EAA7E0B0E0F8012081222344F7A6ECBD
:10060000B0E0FC908E2D90E08730910508F062C03C
:10061000FC018827EE58FF4F8F4FB9C2BBE1FB1298
:1006200096CF0F2EFBE1BF2EF02DEE24E3948FCF5B
:10063000BF24CB5DDE4FF882C552D1406894EE24D2
:10064000E1F885CFCF2CD12CDC2CCC24BF240F2E6D
:10065000F3E0EF2EF02D7BCFCF28BF246894EE245B
:10066000E2F875CFEEE0FE1267C2B824C15EDE4F3D
:100670009882CF51D140C05EDE4FA882C052D14097
:100680000F2EF5E0EF2EF02D62CFC15EDE4F888198
:100690009981CF51D1400196E1E0F0E0EC0FFD1FD0
:1006A000C15EDE4F28813981CF51D140E20FF31F67
:1006B000F082BF248C159D0509F040C284E44EDD14
:1006C000FFCFFB1003C08FE449DD07C08EE446DD99
:1006D000E12C3DCF37E0E3123ACF2981822F90E021
:1006E000FC013197EB31F10508F0B4C18827E758D8
:1006F000FF4F8F4F4CC21A8288E08B8381E48C833A
:1007000086E58D8382E58E8389E48F8383E5888700
:1007100080E589878FE58A8782E38B87A12C0F2E5E
:10072000FBE0EF2EF12CF02D9CC18A81813931F054
:10073000823931F0803931F48FE005C082E003C0A6
:100740008AE001C080E01A828B83A12C0F2EF3E097
:10075000EF2EF12CF02D85C1AA24A39401C0A12C69
:100760001A826894EE24E1F8F12C7BC18D818823F4
:1007700021F0813021F081E003C08EE101C088E9E1
:100780001A828B831C82A12C6894EE24E2F8F12C4F
:1007900068C11A82E1E0F0E089E08093570084911B
:1007A0008B831C82A12C6894EE24E2F8F12C59C1B1
:1007B0008B81803589F48C81883039F4E2E0F0E077
:1007C00089E08093570084910DC0E0E0F0E089E07B
:1007D00080935700849106C0E3E0F0E089E08093C5
:1007E000570084911A828B831C82A12C6894EE247A
:1007F000E2F8F12C36C180EC8A83A12C6894EE24B7
:10080000E1F8F12CCF5DDE4F188219821A821B822B
:10081000C152D14026C18A814B80512C612C712C50
:10082000320155244424782A8D81482A8C81582A03
:10083000440C551C661C771C1A82A12C6894EE246B
:10084000E1F8F12C0EC1EA80F12CFE2CEE248B8114
:10085000E82A233109F07BC0CF5DDE4F8881998182
:10086000AA81BB81C152D1408115904CA340B105F2
:1008700028F583E0CF5DDE4F288139814A815B8195
:10088000C152D140F90140935B0080935700E89535
:1008900007B600FCFDCFCF5DDE4F88819981AA812C
:1008A000BB81C152D1409F5FAF4FBF4FCF5DDE4F85
:1008B00088839983AA83BB83C152D1408C8590E001
:1008C000982F88272B85822B21E00C01F201609262
:1008D0005B0020935700E8951124B301A2014E5FFD
:1008E0005F4F6F4F7F4F92E0E91AF108F9F0DE0198
:1008F00011961D968C911D9790E0982F88271C9635
:100900003C911C97832B0C01FA0160935B002093B0
:100910005700E89511244E5F5F4F6F4F7F4FE2E025
:10092000EE1AF1081296E114F10419F785E0F201CC
:1009300060925B0080935700E89507B600FCFDCFFE
:1009400081E180935700E8952A013B0129C05301BA
:100950004201B694A79497948794E114F10401F1AD
:100960005E01FBE0AF0EB11C6701D5016D915D0129
:10097000C4011DD1BFEF8B1A9B0AE1E0CE1AD1084A
:10098000A1F7C7010197A0E0B0E0880F991FAA1F47
:10099000BB1F0296A11DB11D480E591E6A1E7B1E6B
:1009A0001A82A12C6894EE24E1F8F12C5AC08A81B5
:1009B00090E0982F88273B81832B7C01F3E0EF0E9A
:1009C000F11C1A82243199F4DE0113966BBEF201F8
:1009D000279136912C931296FD013197308322E0B6
:1009E000420E511C611C711C029781F730C0FE0140
:1009F00033969C012E5F3F4F41E050E04C0F5D1F4E
:100A0000240F351FB301A20141BD852E962EA72EBE
:100A1000BB2482BC4F5F5F4F6F4F7F4FF89AA0B5EA
:100A2000A193E217F30781F7AC014150510960E04F
:100A300070E04F5F5F4F6F4F7F4F440E551E661E35
:100A4000771EA3E0B0E0AC0FBD1FA80FB91F1C922A
:100A5000A12C07C080EC8A83A12C6894EE24E1F8D5
:100A6000F12C8BE17BDBCB5DDE4F8881C552D14021
:100A700075DB8F2D73DB8E2D71DB85E1CB5DDE4F5A
:100A8000B880C552D140B826BE248EE067DBBF24B3
:100A9000E114F10469F0CE0101966C01D6019D903C
:100AA0006D01892D5BDBB924B1E0EB1AF108B1F7D8
:100AB0008B2D54DBCB5DDE4FE881C552D140EF5F1B
:100AC000CB5DDE4FE883C552D140AA20E9F026C0B5
:100AD000CF5DDE4F188219821A821B82C152D1402B
:100AE000412C512C320122242394312CCB5DDE4F3A
:100AF0001882C552D140B12CC15EDE4F19821882D6
:100B0000CF51D14000EC10E0C12CD12CE12C912C24
:100B1000A12C0F2EFEE08F2EF02D19CD0000E0EC61
:100B2000F0E080818D7F808381E180935700E8959C
:100B3000EE27FF270994FFCFE12C09CDC15EDE4FE0
:100B400099838883CF51D14002CDA1E21A2EAA1BEE
:100B5000BB1BFD010DC0AA1FBB1FEE1FFF1FA2176D
:100B6000B307E407F50720F0A21BB30BE40BF50B6A
:100B7000661F771F881F991F1A9469F760957095F3
:100B8000809590959B01AC01BD01CF010895EE0FBA
:100B9000FF1F881F8BBF0790F691E02D1994F999DC
:100BA000FECF92BD81BDF89A992780B50895262F72
:100BB000F999FECF1FBA92BD81BD20BD0FB6F89442
:0E0BC000FA9AF99A0FBE01960895F894FFCFA5
:00000001FF
